{
  "_format": "hh-sol-artifact-1",
  "contractName": "FruitMoodNFT",
  "sourceName": "contracts/FruitMoodNFT.sol",
  "abi": [
    {
      "inputs": [
        {
          "internalType": "address",
          "name": "initialOwner",
          "type": "address"
        }
      ],
      "stateMutability": "nonpayable",
      "type": "constructor"
    },
    {
      "inputs": [
        {
          "internalType": "address",
          "name": "sender",
          "type": "address"
        },
        {
          "internalType": "uint256",
          "name": "balance",
          "type": "uint256"
        },
        {
          "internalType": "uint256",
          "name": "needed",
          "type": "uint256"
        },
        {
          "internalType": "uint256",
          "name": "tokenId",
          "type": "uint256"
        }
      ],
      "name": "ERC1155InsufficientBalance",
      "type": "error"
    },
    {
      "inputs": [
        {
          "internalType": "address",
          "name": "approver",
          "type": "address"
        }
      ],
      "name": "ERC1155InvalidApprover",
      "type": "error"
    },
    {
      "inputs": [
        {
          "internalType": "uint256",
          "name": "idsLength",
          "type": "uint256"
        },
        {
          "internalType": "uint256",
          "name": "valuesLength",
          "type": "uint256"
        }
      ],
      "name": "ERC1155InvalidArrayLength",
      "type": "error"
    },
    {
      "inputs": [
        {
          "internalType": "address",
          "name": "operator",
          "type": "address"
        }
      ],
      "name": "ERC1155InvalidOperator",
      "type": "error"
    },
    {
      "inputs": [
        {
          "internalType": "address",
          "name": "receiver",
          "type": "address"
        }
      ],
      "name": "ERC1155InvalidReceiver",
      "type": "error"
    },
    {
      "inputs": [
        {
          "internalType": "address",
          "name": "sender",
          "type": "address"
        }
      ],
      "name": "ERC1155InvalidSender",
      "type": "error"
    },
    {
      "inputs": [
        {
          "internalType": "address",
          "name": "operator",
          "type": "address"
        },
        {
          "internalType": "address",
          "name": "owner",
          "type": "address"
        }
      ],
      "name": "ERC1155MissingApprovalForAll",
      "type": "error"
    },
    {
      "inputs": [
        {
          "internalType": "address",
          "name": "owner",
          "type": "address"
        }
      ],
      "name": "OwnableInvalidOwner",
      "type": "error"
    },
    {
      "inputs": [
        {
          "internalType": "address",
          "name": "account",
          "type": "address"
        }
      ],
      "name": "OwnableUnauthorizedAccount",
      "type": "error"
    },
    {
      "anonymous": false,
      "inputs": [
        {
          "indexed": true,
          "internalType": "address",
          "name": "account",
          "type": "address"
        },
        {
          "indexed": true,
          "internalType": "address",
          "name": "operator",
          "type": "address"
        },
        {
          "indexed": false,
          "internalType": "bool",
          "name": "approved",
          "type": "bool"
        }
      ],
      "name": "ApprovalForAll",
      "type": "event"
    },
    {
      "anonymous": false,
      "inputs": [
        {
          "indexed": true,
          "internalType": "address",
          "name": "previousOwner",
          "type": "address"
        },
        {
          "indexed": true,
          "internalType": "address",
          "name": "newOwner",
          "type": "address"
        }
      ],
      "name": "OwnershipTransferred",
      "type": "event"
    },
    {
      "anonymous": false,
      "inputs": [
        {
          "indexed": true,
          "internalType": "address",
          "name": "operator",
          "type": "address"
        },
        {
          "indexed": true,
          "internalType": "address",
          "name": "from",
          "type": "address"
        },
        {
          "indexed": true,
          "internalType": "address",
          "name": "to",
          "type": "address"
        },
        {
          "indexed": false,
          "internalType": "uint256[]",
          "name": "ids",
          "type": "uint256[]"
        },
        {
          "indexed": false,
          "internalType": "uint256[]",
          "name": "values",
          "type": "uint256[]"
        }
      ],
      "name": "TransferBatch",
      "type": "event"
    },
    {
      "anonymous": false,
      "inputs": [
        {
          "indexed": true,
          "internalType": "address",
          "name": "operator",
          "type": "address"
        },
        {
          "indexed": true,
          "internalType": "address",
          "name": "from",
          "type": "address"
        },
        {
          "indexed": true,
          "internalType": "address",
          "name": "to",
          "type": "address"
        },
        {
          "indexed": false,
          "internalType": "uint256",
          "name": "id",
          "type": "uint256"
        },
        {
          "indexed": false,
          "internalType": "uint256",
          "name": "value",
          "type": "uint256"
        }
      ],
      "name": "TransferSingle",
      "type": "event"
    },
    {
      "anonymous": false,
      "inputs": [
        {
          "indexed": false,
          "internalType": "string",
          "name": "value",
          "type": "string"
        },
        {
          "indexed": true,
          "internalType": "uint256",
          "name": "id",
          "type": "uint256"
        }
      ],
      "name": "URI",
      "type": "event"
    },
    {
      "inputs": [
        {
          "internalType": "address",
          "name": "account",
          "type": "address"
        },
        {
          "internalType": "uint256",
          "name": "id",
          "type": "uint256"
        }
      ],
      "name": "balanceOf",
      "outputs": [
        {
          "internalType": "uint256",
          "name": "",
          "type": "uint256"
        }
      ],
      "stateMutability": "view",
      "type": "function"
    },
    {
      "inputs": [
        {
          "internalType": "address[]",
          "name": "accounts",
          "type": "address[]"
        },
        {
          "internalType": "uint256[]",
          "name": "ids",
          "type": "uint256[]"
        }
      ],
      "name": "balanceOfBatch",
      "outputs": [
        {
          "internalType": "uint256[]",
          "name": "",
          "type": "uint256[]"
        }
      ],
      "stateMutability": "view",
      "type": "function"
    },
    {
      "inputs": [
        {
          "internalType": "enum FruitMoodNFT.Fruit",
          "name": "fruit",
          "type": "uint8"
        },
        {
          "internalType": "enum FruitMoodNFT.Emotion",
          "name": "emotion",
          "type": "uint8"
        }
      ],
      "name": "getTokenId",
      "outputs": [
        {
          "internalType": "uint256",
          "name": "",
          "type": "uint256"
        }
      ],
      "stateMutability": "pure",
      "type": "function"
    },
    {
      "inputs": [
        {
          "internalType": "address",
          "name": "account",
          "type": "address"
        },
        {
          "internalType": "address",
          "name": "operator",
          "type": "address"
        }
      ],
      "name": "isApprovedForAll",
      "outputs": [
        {
          "internalType": "bool",
          "name": "",
          "type": "bool"
        }
      ],
      "stateMutability": "view",
      "type": "function"
    },
    {
      "inputs": [
        {
          "internalType": "enum FruitMoodNFT.Fruit",
          "name": "fruit",
          "type": "uint8"
        }
      ],
      "name": "mergeFruits",
      "outputs": [],
      "stateMutability": "nonpayable",
      "type": "function"
    },
    {
      "inputs": [
        {
          "internalType": "enum FruitMoodNFT.Fruit",
          "name": "fruit",
          "type": "uint8"
        },
        {
          "internalType": "enum FruitMoodNFT.Emotion",
          "name": "emotion",
          "type": "uint8"
        },
        {
          "internalType": "uint256",
          "name": "amount",
          "type": "uint256"
        },
        {
          "internalType": "bytes",
          "name": "data",
          "type": "bytes"
        }
      ],
      "name": "mint",
      "outputs": [],
      "stateMutability": "nonpayable",
      "type": "function"
    },
    {
      "inputs": [],
      "name": "name",
      "outputs": [
        {
          "internalType": "string",
          "name": "",
          "type": "string"
        }
      ],
      "stateMutability": "view",
      "type": "function"
    },
    {
      "inputs": [],
      "name": "owner",
      "outputs": [
        {
          "internalType": "address",
          "name": "",
          "type": "address"
        }
      ],
      "stateMutability": "view",
      "type": "function"
    },
    {
      "inputs": [],
      "name": "renounceOwnership",
      "outputs": [],
      "stateMutability": "nonpayable",
      "type": "function"
    },
    {
      "inputs": [
        {
          "internalType": "address",
          "name": "from",
          "type": "address"
        },
        {
          "internalType": "address",
          "name": "to",
          "type": "address"
        },
        {
          "internalType": "uint256[]",
          "name": "ids",
          "type": "uint256[]"
        },
        {
          "internalType": "uint256[]",
          "name": "values",
          "type": "uint256[]"
        },
        {
          "internalType": "bytes",
          "name": "data",
          "type": "bytes"
        }
      ],
      "name": "safeBatchTransferFrom",
      "outputs": [],
      "stateMutability": "nonpayable",
      "type": "function"
    },
    {
      "inputs": [
        {
          "internalType": "address",
          "name": "from",
          "type": "address"
        },
        {
          "internalType": "address",
          "name": "to",
          "type": "address"
        },
        {
          "internalType": "uint256",
          "name": "id",
          "type": "uint256"
        },
        {
          "internalType": "uint256",
          "name": "value",
          "type": "uint256"
        },
        {
          "internalType": "bytes",
          "name": "data",
          "type": "bytes"
        }
      ],
      "name": "safeTransferFrom",
      "outputs": [],
      "stateMutability": "nonpayable",
      "type": "function"
    },
    {
      "inputs": [
        {
          "internalType": "address",
          "name": "operator",
          "type": "address"
        },
        {
          "internalType": "bool",
          "name": "approved",
          "type": "bool"
        }
      ],
      "name": "setApprovalForAll",
      "outputs": [],
      "stateMutability": "nonpayable",
      "type": "function"
    },
    {
      "inputs": [
        {
          "internalType": "string",
          "name": "newuri",
          "type": "string"
        }
      ],
      "name": "setURI",
      "outputs": [],
      "stateMutability": "nonpayable",
      "type": "function"
    },
    {
      "inputs": [
        {
          "internalType": "bytes4",
          "name": "interfaceId",
          "type": "bytes4"
        }
      ],
      "name": "supportsInterface",
      "outputs": [
        {
          "internalType": "bool",
          "name": "",
          "type": "bool"
        }
      ],
      "stateMutability": "view",
      "type": "function"
    },
    {
      "inputs": [],
      "name": "symbol",
      "outputs": [
        {
          "internalType": "string",
          "name": "",
          "type": "string"
        }
      ],
      "stateMutability": "view",
      "type": "function"
    },
    {
      "inputs": [
        {
          "internalType": "uint256",
          "name": "",
          "type": "uint256"
        }
      ],
      "name": "totalMinted",
      "outputs": [
        {
          "internalType": "uint256",
          "name": "",
          "type": "uint256"
        }
      ],
      "stateMutability": "view",
      "type": "function"
    },
    {
      "inputs": [
        {
          "internalType": "address",
          "name": "newOwner",
          "type": "address"
        }
      ],
      "name": "transferOwnership",
      "outputs": [],
      "stateMutability": "nonpayable",
      "type": "function"
    },
    {
      "inputs": [
        {
          "internalType": "enum FruitMoodNFT.Fruit",
          "name": "",
          "type": "uint8"
        }
      ],
      "name": "ultimateTokenIds",
      "outputs": [
        {
          "internalType": "uint256",
          "name": "",
          "type": "uint256"
        }
      ],
      "stateMutability": "view",
      "type": "function"
    },
    {
      "inputs": [
        {
          "internalType": "uint256",
          "name": "",
          "type": "uint256"
        }
      ],
      "name": "uri",
      "outputs": [
        {
          "internalType": "string",
          "name": "",
          "type": "string"
        }
      ],
      "stateMutability": "view",
      "type": "function"
    }
  ],
  "bytecode": "0x60806040523480156200001157600080fd5b5060405162001cdb38038062001cdb833981016040819052620000349162000230565b806040518060600160405280603f815260200162001c9c603f91396200005a81620001cc565b506001600160a01b0381166200008a57604051631e4fbdf760e01b81526000600482015260240160405180910390fd5b6200009581620001de565b5060408051808201909152601481527f46727569744d6f6f6420436f6c6c656374696f6e0000000000000000000000006020820152600690620000d9908262000309565b5060408051808201909152600381526211935560ea1b602082015260079062000103908262000309565b5050600560205260647f05b8ccbb9d4d8fb16ea74ce3c29a41f1b461fbdaff4714a0d9a8eb05499746bc5560c87f1471eb6eb2c5e789fc3de43f8ce62938c7d1836ec861730447e2ada8fd81017b5561012c7f89832631fb3c3307a103ba2c84ab569c64d6182a18893dcd163f0f1c2090733a556101907fa9bc9a3a348c357ba16b37005d7e6b3236198c0e939f4af8c5f19b8deeb8ebc05560046000526101f47f3eec716f11ba9e820c81ca75eb978ffb45831ef8b7a53e5e422c26008e1ca6d555620003d5565b6002620001da828262000309565b5050565b600380546001600160a01b038381166001600160a01b0319831681179093556040519116919082907f8be0079c531659141344cd1fd0a4f28419497f9722a3daafe3b4186f6b6457e090600090a35050565b6000602082840312156200024357600080fd5b81516001600160a01b03811681146200025b57600080fd5b9392505050565b634e487b7160e01b600052604160045260246000fd5b600181811c908216806200028d57607f821691505b602082108103620002ae57634e487b7160e01b600052602260045260246000fd5b50919050565b601f82111562000304576000816000526020600020601f850160051c81016020861015620002df5750805b601f850160051c820191505b818110156200030057828155600101620002eb565b5050505b505050565b81516001600160401b0381111562000325576200032562000262565b6200033d8162000336845462000278565b84620002b4565b602080601f8311600181146200037557600084156200035c5750858301515b600019600386901b1c1916600185901b17855562000300565b600085815260208120601f198616915b82811015620003a65788860151825594840194600190910190840162000385565b5085821015620003c55787850151600019600388901b60f8161c191681555b5050505050600190811b01905550565b6118b780620003e56000396000f3fe608060405234801561001057600080fd5b50600436106101205760003560e01c8063877fbc91116100ad578063cb6c781611610071578063cb6c781614610262578063e985e9c514610282578063ef7504a714610295578063f242432a146102a8578063f2fde38b146102bb57600080fd5b8063877fbc91146101f95780638da5cb5b1461020c57806395d89b41146102275780639d7f4ebf1461022f578063a22cb4651461024f57600080fd5b80630e89341c116100f45780630e89341c146101985780632eb2c2d6146101ab578063455d932a146101be5780634e1273f4146101d1578063715018a6146101f157600080fd5b8062fdd58e1461012557806301ffc9a71461014b57806302fe53051461016e57806306fdde0314610183575b600080fd5b610138610133366004610fe9565b6102ce565b6040519081526020015b60405180910390f35b61015e610159366004611029565b6102f6565b6040519015158152602001610142565b61018161017c3660046110e5565b610346565b005b61018b61035a565b604051610142919061117c565b61018b6101a636600461118f565b6103e8565b6101816101b936600461125b565b61047c565b6101386101cc366004611312565b6104e8565b6101e46101df36600461134b565b61052a565b6040516101429190611447565b6101816105f7565b61018161020736600461145a565b61060b565b6003546040516001600160a01b039091168152602001610142565b61018b61075a565b61013861023d36600461118f565b60046020526000908152604090205481565b61018161025d366004611477565b610767565b61013861027036600461145a565b60056020526000908152604090205481565b61015e6102903660046114a8565b610772565b6101816102a33660046114db565b6107a0565b6101816102b6366004611547565b6107e4565b6101816102c93660046115ac565b610843565b6000818152602081815260408083206001600160a01b03861684529091529020545b92915050565b60006001600160e01b03198216636cdb3d1360e11b148061032757506001600160e01b031982166303a24d0760e21b145b806102f057506301ffc9a760e01b6001600160e01b03198316146102f0565b61034e61087e565b610357816108ab565b50565b60068054610367906115c7565b80601f0160208091040260200160405190810160405280929190818152602001828054610393906115c7565b80156103e05780601f106103b5576101008083540402835291602001916103e0565b820191906000526020600020905b8154815290600101906020018083116103c357829003601f168201915b505050505081565b6060600280546103f7906115c7565b80601f0160208091040260200160405190810160405280929190818152602001828054610423906115c7565b80156104705780601f1061044557610100808354040283529160200191610470565b820191906000526020600020905b81548152906001019060200180831161045357829003601f168201915b50505050509050919050565b336001600160a01b038616811480159061049d575061049b8682610772565b155b156104d35760405163711bec9160e11b81526001600160a01b038083166004830152871660248201526044015b60405180910390fd5b6104e086868686866108b7565b505050505050565b60008160048111156104fc576104fc611601565b83600481111561050e5761050e611601565b61051990600a61162d565b6105239190611644565b9392505050565b6060815183511461055b5781518351604051635b05999160e01b8152600481019290925260248201526044016104ca565b6000835167ffffffffffffffff81111561057757610577611046565b6040519080825280602002602001820160405280156105a0578160200160208202803683370190505b50905060005b84518110156105ef576020808202860101516105ca906020808402870101516102ce565b8282815181106105dc576105dc611657565b60209081029190910101526001016105a6565b509392505050565b6105ff61087e565b610609600061091e565b565b60005b600481116106f457600081600481111561062a5761062a611601565b9050600061063884836104e8565b9050600061064633836102ce565b116106d35760405162461bcd60e51b815260206004820152605160248201527f596f75206d75737420636f6c6c65637420616c6c203520656d6f74696f6e207460448201527f7261697473206f66207468652073616d65206672756974204e465420746f207060648201527032b93337b936903a34329036b2b933b29760791b608482015260a4016104ca565b6106df33826001610970565b505080806106ec9061166d565b91505061060e565b5060006005600083600481111561070d5761070d611601565b600481111561071e5761071e611601565b81526020019081526020016000205490506107563382600160405180604001604052806002815260200161060f60f31b8152506109d8565b5050565b60078054610367906115c7565b610756338383610a35565b6001600160a01b03918216600090815260016020908152604080832093909416825291909152205460ff1690565b60006107ac85856104e8565b90506107ba338285856109d8565b600081815260046020526040812080548592906107d8908490611644565b90915550505050505050565b336001600160a01b038616811480159061080557506108038682610772565b155b156108365760405163711bec9160e11b81526001600160a01b038083166004830152871660248201526044016104ca565b6104e08686868686610acb565b61084b61087e565b6001600160a01b03811661087557604051631e4fbdf760e01b8152600060048201526024016104ca565b6103578161091e565b6003546001600160a01b031633146106095760405163118cdaa760e01b81523360048201526024016104ca565b600261075682826116d3565b6001600160a01b0384166108e157604051632bfa23e760e11b8152600060048201526024016104ca565b6001600160a01b03851661090a57604051626a0d4560e21b8152600060048201526024016104ca565b6109178585858585610b59565b5050505050565b600380546001600160a01b038381166001600160a01b0319831681179093556040519116919082907f8be0079c531659141344cd1fd0a4f28419497f9722a3daafe3b4186f6b6457e090600090a35050565b6001600160a01b03831661099957604051626a0d4560e21b8152600060048201526024016104ca565b604080516001808252602082018590528183019081526060820184905260a0820190925260006080820181815291929161091791879185908590610b59565b6001600160a01b038416610a0257604051632bfa23e760e11b8152600060048201526024016104ca565b604080516001808252602082018690528183019081526060820185905260808201909252906104e0600087848487610b59565b6001600160a01b038216610a5e5760405162ced3e160e81b8152600060048201526024016104ca565b6001600160a01b03838116600081815260016020908152604080832094871680845294825291829020805460ff191686151590811790915591519182527f17307eab39ab6107e8899845ad3d59bd9653f200f220920489ca2b5937696c31910160405180910390a3505050565b6001600160a01b038416610af557604051632bfa23e760e11b8152600060048201526024016104ca565b6001600160a01b038516610b1e57604051626a0d4560e21b8152600060048201526024016104ca565b60408051600180825260208201869052818301908152606082018590526080820190925290610b508787848487610b59565b50505050505050565b610b6585858585610bac565b6001600160a01b038416156109175782513390600103610b9e5760208481015190840151610b97838989858589610dc0565b50506104e0565b6104e0818787878787610ee4565b8051825114610bdb5781518151604051635b05999160e01b8152600481019290925260248201526044016104ca565b3360005b8351811015610ce1576020818102858101820151908501909101516001600160a01b03881615610c92576000828152602081815260408083206001600160a01b038c16845290915290205481811015610c6b576040516303dee4c560e01b81526001600160a01b038a1660048201526024810182905260448101839052606481018490526084016104ca565b6000838152602081815260408083206001600160a01b038d16845290915290209082900390555b6001600160a01b03871615610cd7576000828152602081815260408083206001600160a01b038b16845290915281208054839290610cd1908490611644565b90915550505b5050600101610bdf565b508251600103610d625760208301516000906020840151909150856001600160a01b0316876001600160a01b0316846001600160a01b03167fc3d58168c5ae7397731d063d5bbf3d657854427343f4c083240f7aacaa2d0f628585604051610d53929190918252602082015260400190565b60405180910390a45050610917565b836001600160a01b0316856001600160a01b0316826001600160a01b03167f4a39dc06d4c0dbc64b70af90fd698a233a518aa5d07e595d983b8c0526c8f7fb8686604051610db1929190611793565b60405180910390a45050505050565b6001600160a01b0384163b156104e05760405163f23a6e6160e01b81526001600160a01b0385169063f23a6e6190610e0490899089908890889088906004016117c1565b6020604051808303816000875af1925050508015610e3f575060408051601f3d908101601f19168201909252610e3c91810190611806565b60015b610ea8573d808015610e6d576040519150601f19603f3d011682016040523d82523d6000602084013e610e72565b606091505b508051600003610ea057604051632bfa23e760e11b81526001600160a01b03861660048201526024016104ca565b805181602001fd5b6001600160e01b0319811663f23a6e6160e01b14610b5057604051632bfa23e760e11b81526001600160a01b03861660048201526024016104ca565b6001600160a01b0384163b156104e05760405163bc197c8160e01b81526001600160a01b0385169063bc197c8190610f289089908990889088908890600401611823565b6020604051808303816000875af1925050508015610f63575060408051601f3d908101601f19168201909252610f6091810190611806565b60015b610f91573d808015610e6d576040519150601f19603f3d011682016040523d82523d6000602084013e610e72565b6001600160e01b0319811663bc197c8160e01b14610b5057604051632bfa23e760e11b81526001600160a01b03861660048201526024016104ca565b80356001600160a01b0381168114610fe457600080fd5b919050565b60008060408385031215610ffc57600080fd5b61100583610fcd565b946020939093013593505050565b6001600160e01b03198116811461035757600080fd5b60006020828403121561103b57600080fd5b813561052381611013565b634e487b7160e01b600052604160045260246000fd5b604051601f8201601f1916810167ffffffffffffffff8111828210171561108557611085611046565b604052919050565b600067ffffffffffffffff8311156110a7576110a7611046565b6110ba601f8401601f191660200161105c565b90508281528383830111156110ce57600080fd5b828260208301376000602084830101529392505050565b6000602082840312156110f757600080fd5b813567ffffffffffffffff81111561110e57600080fd5b8201601f8101841361111f57600080fd5b61112e8482356020840161108d565b949350505050565b6000815180845260005b8181101561115c57602081850181015186830182015201611140565b506000602082860101526020601f19601f83011685010191505092915050565b6020815260006105236020830184611136565b6000602082840312156111a157600080fd5b5035919050565b600067ffffffffffffffff8211156111c2576111c2611046565b5060051b60200190565b600082601f8301126111dd57600080fd5b813560206111f26111ed836111a8565b61105c565b8083825260208201915060208460051b87010193508684111561121457600080fd5b602086015b848110156112305780358352918301918301611219565b509695505050505050565b600082601f83011261124c57600080fd5b6105238383356020850161108d565b600080600080600060a0868803121561127357600080fd5b61127c86610fcd565b945061128a60208701610fcd565b9350604086013567ffffffffffffffff808211156112a757600080fd5b6112b389838a016111cc565b945060608801359150808211156112c957600080fd5b6112d589838a016111cc565b935060808801359150808211156112eb57600080fd5b506112f88882890161123b565b9150509295509295909350565b6005811061035757600080fd5b6000806040838503121561132557600080fd5b823561133081611305565b9150602083013561134081611305565b809150509250929050565b6000806040838503121561135e57600080fd5b823567ffffffffffffffff8082111561137657600080fd5b818501915085601f83011261138a57600080fd5b8135602061139a6111ed836111a8565b82815260059290921b840181019181810190898411156113b957600080fd5b948201945b838610156113de576113cf86610fcd565b825294820194908201906113be565b965050860135925050808211156113f457600080fd5b50611401858286016111cc565b9150509250929050565b60008151808452602080850194506020840160005b8381101561143c57815187529582019590820190600101611420565b509495945050505050565b602081526000610523602083018461140b565b60006020828403121561146c57600080fd5b813561052381611305565b6000806040838503121561148a57600080fd5b61149383610fcd565b91506020830135801515811461134057600080fd5b600080604083850312156114bb57600080fd5b6114c483610fcd565b91506114d260208401610fcd565b90509250929050565b600080600080608085870312156114f157600080fd5b84356114fc81611305565b9350602085013561150c81611305565b925060408501359150606085013567ffffffffffffffff81111561152f57600080fd5b61153b8782880161123b565b91505092959194509250565b600080600080600060a0868803121561155f57600080fd5b61156886610fcd565b945061157660208701610fcd565b93506040860135925060608601359150608086013567ffffffffffffffff8111156115a057600080fd5b6112f88882890161123b565b6000602082840312156115be57600080fd5b61052382610fcd565b600181811c908216806115db57607f821691505b6020821081036115fb57634e487b7160e01b600052602260045260246000fd5b50919050565b634e487b7160e01b600052602160045260246000fd5b634e487b7160e01b600052601160045260246000fd5b80820281158282048414176102f0576102f0611617565b808201808211156102f0576102f0611617565b634e487b7160e01b600052603260045260246000fd5b60006001820161167f5761167f611617565b5060010190565b601f8211156116ce576000816000526020600020601f850160051c810160208610156116af5750805b601f850160051c820191505b818110156104e0578281556001016116bb565b505050565b815167ffffffffffffffff8111156116ed576116ed611046565b611701816116fb84546115c7565b84611686565b602080601f831160018114611736576000841561171e5750858301515b600019600386901b1c1916600185901b1785556104e0565b600085815260208120601f198616915b8281101561176557888601518255948401946001909101908401611746565b50858210156117835787850151600019600388901b60f8161c191681555b5050505050600190811b01905550565b6040815260006117a6604083018561140b565b82810360208401526117b8818561140b565b95945050505050565b6001600160a01b03868116825285166020820152604081018490526060810183905260a0608082018190526000906117fb90830184611136565b979650505050505050565b60006020828403121561181857600080fd5b815161052381611013565b6001600160a01b0386811682528516602082015260a06040820181905260009061184f9083018661140b565b8281036060840152611861818661140b565b905082810360808401526118758185611136565b9897505050505050505056fea26469706673582212204e1e70e38af9e5baee48d586a48bd39850bbdf2663a3e0e449dfadc176ee76f564736f6c63430008180033697066733a2f2f516d62503843333242326d706a51466b52586d5a75354a375343616355746731336b686d4442597655513137674a2f7b69647d2e6a736f6e",
  "linkReferences": {},
  "deployedLinkReferences": {}
}